:02000004C0D06A
:1000000010B59EB02848784418AC21460CC80CC1E5
:10001000007808701E4817901E4816901E481590CC
:100020000CA822497944242200F068F80E9416A8FE
:100030000F9015A8109001AC204600F0CBF8208559
:10004000164908420FD101A800F056F8092000F027
:100050007FF813A01B90012000021C900CA81D909B
:100060001BA800F0A1F800F069F801A9884203D1AB
:1000700000F066F800F040F800F01AF801A8008DD2
:10008000002802D100201EB010BD00F052F8C0467A
:100090006F696E0047494E6347494E00FFFF0000FD
:1000A000426974636F696E008A0300007803000080
:1000B00010B58CB001AC204600F08CF820850D49BD
:1000C000084206D101A800F017F80020C04300F054
:1000D00055F800F033F801A9884203D100F030F858
:1000E00000F00AF801A8008D002801D10CB010BD65
:1000F00000F01FF8FFFF000081467047B0B588424E
:100100000DD9002A14D0491E5242401E0023DB4361
:100110001C4654430D5D0555521CF9D108E0002AD8
:1001200006D000239CB20D5D05555B1C521EF9D113
:10013000B0BD80B50146484600F058F848467047C3
:1001400000204946002900D04869704701DF704708
:1001500080B582B0009007486946FFF7F7FF01AA13
:1001600011600549884201D102B080BD0420FFF72B
:10017000E0FFC04637010060C601009080B582B044
:10018000009007486946FFF7E1FF01AA11600549A1
:10019000884201D102B080BD0420FFF7CAFFC046EB
:1001A000E16200606F62009080B582B00090074805
:1001B0006946FFF7CBFF01AA11600549884202D1C9
:1001C000019802B080BD0420FFF7B3FF0B6500600B
:1001D00015650090F0C041464A4653465C466D4660
:1001E00076467EC02838F0C80020704710307CC8A2
:1001F00090469946A246AB46B54608C82838F0C88E
:10020000081C00D1012018474D616E75616C20619A
:100210007070726F76616C004175746F20617070E0
:10022000726F76616C005075626C6963206B6579E2
:1002300073006578706F727420617070726F766190
:100240006C004261636B0056657273696F6E0031BA
:100250002E332E38005573652077616C6C657420E1
:10026000746F0076696577206163636F756E747370
:100270000053657474696E67730041626F75740032
:100280005175697420617070005761726E696E6794
:100290002021005468652064657269766174696F15
:1002A0006E007061746820697320756E7573756176
:1002B0006C0044657269766174696F6E2070617458
:1002C000680052656A65637420696620796F7527D6
:1002D0007265006E6F74207375726500436F6E6691
:1002E00069726D0061646472657373004164647265
:1002F00065737300436F6E6669726D20746F6B6512
:100300006E004578706F7274007075626C6963205E
:100310006B65793F00546865206368616E6765208E
:1003200070617468004368616E676520706174680D
:10033000007472616E73616374696F6E00416D6FFA
:10034000756E740046656573005369676E20746846
:1003500065006D657373616765004D6573736167F3
:1003600065206861736800524557415244004F4D03
:100370004E4920005553445420004D41494420002B
:10038000503253480047494E636F696E0047494EEB
:10039000000000004461726B436F696E0000000052
:1003A00026000A00010000009403D0C08503D0C0DD
:1003B0008D03D0C000000000000000001900000004
:1003C000000000000000000000000000000000002D
:1003D000000000000000000000000000000000001D
:1003E000000000000000000000000000000000000D
:1003F00000000000000000000000000000000000FD
:04000005C0D0000166
:00000001FF
