:02000004C0D06A
:1000000010B5A0B0284878441AAC21460CC80CC1E1
:10001000007808701E4819901E4818901E481790C6
:100020000DA822497944282200F066F80F9418A8F8
:10003000109017A8119001AC204600F0BDF8A085E3
:100040001649084210D101A800F0AAF80B900A2026
:1000500000F076F812A01D90012000021E900DA85D
:100060001F901DA800F078F800F08EF801A98842D2
:1000700002D10B9800F094F800F01AF801A8808DD6
:10008000002802D1002020B010BD00F050F8C0467A
:100090006F696E0047494E6347494E00FFFF0000FD
:1000A000426974636F696E00B2030000A003000030
:1000B00010B58CB06C46204600F07EF8A0850D4946
:1000C000084206D1684600F06BF80A90FF2000F065
:1000D0004FF800F059F86946884202D10A9800F0BA
:1000E0005FF86846808D002801D10CB010BD00F08B
:1000F0001EF8C046FFFF0000B0B588420DD9002AA7
:1001000014D0491E5242401E0023DB431C46544378
:100110000D5D0555521CF9D108E0002A06D00023D8
:100120009CB20D5D05555B1C521EF9D1B0BD10B5DA
:10013000044600F029F8214600F04AF801DF704734
:1001400080B584B00190034801A9FFF7F7FF04B020
:1001500080BDC0463701006080B584B0019003487F
:1001600001A9FFF7EBFF04B080BDC0460D6700603A
:1001700080B584B00190034801A9FFF7DFFF04B008
:1001800080BDC046BE9A006080B582B00348694613
:10019000FFF7D4FF019802B080BDC046B187006070
:1001A00080B584B00190034801A9FFF7C7FF02980A
:1001B00004B080BD75880060F0C041464A46534691
:1001C0005C466D4676467EC02838F0C800207047F1
:1001D00010307CC890469946A246AB46B54608C842
:1001E0002838F0C8081C00D1012018475761726EEA
:1001F000696E6720210054686520646572697661C4
:1002000074696F6E007061746820697320756E7513
:100210007375616C0044657269766174696F6E20F4
:10022000706174680052656A65637420696620793C
:100230006F75277265006E6F742073757265004369
:100240006F6E6669726D00616464726573730041FC
:1002500064647265737300436F6E6669726D2074B7
:100260006F6B656E004578706F7274007075626CAC
:100270006963206B65793F00546865206368616E2F
:1002800067652070617468004368616E67652070FF
:10029000617468007472616E73616374696F6E007B
:1002A000416D6F756E740046656573005369676EC6
:1002B00020746865006D657373616765004D6573D3
:1002C000736167652068617368004175746F2041D0
:1002D0007070726F76616C004D616E75616C20415B
:1002E0007070726F76616C004261636B0050756272
:1002F0006C6963206B657973206578706F72740028
:100300004170706C69636174696F6E00697320720B
:10031000656164790053657474696E67730056652E
:100320007273696F6E00312E332E3137005175694B
:1003300074005369676E0043616E63656C00736996
:10034000676E617475726500526576696577004104
:10035000636365707400616E642073656E6400523F
:10036000656A656374007061746820697320756ED6
:10037000757375616C2100417070726F76652064D1
:10038000657269766174696F6E00417070726F7624
:100390006500524557415244004F4D4E492000558B
:1003A00053445420004D41494420005032534800EA
:1003B00047494E636F696E0047494E004461726B56
:1003C000436F696E0000000026000A000100000073
:1003D000BC03D0C0B003D0C0B803D0C00000000040
:1003E00000000000000000001B00000000000000F2
:1003F00000000000000000000000000000000000FD
:04000005C0D0000166
:00000001FF
